{
  "_format": "hh-sol-artifact-1",
  "contractName": "BridgeN3",
  "sourceName": "contracts/BridgeN3.sol",
  "abi": [
    {
      "inputs": [
        {
          "internalType": "address",
          "name": "_treasury",
          "type": "address"
        }
      ],
      "stateMutability": "nonpayable",
      "type": "constructor"
    },
    {
      "anonymous": false,
      "inputs": [
        {
          "indexed": true,
          "internalType": "address",
          "name": "user",
          "type": "address"
        },
        {
          "indexed": false,
          "internalType": "uint256",
          "name": "amount",
          "type": "uint256"
        },
        {
          "indexed": false,
          "internalType": "string",
          "name": "recipient",
          "type": "string"
        },
        {
          "indexed": false,
          "internalType": "uint256",
          "name": "nonce",
          "type": "uint256"
        }
      ],
      "name": "Deposit",
      "type": "event"
    },
    {
      "inputs": [
        {
          "internalType": "string",
          "name": "recipient",
          "type": "string"
        }
      ],
      "name": "deposit",
      "outputs": [],
      "stateMutability": "payable",
      "type": "function"
    },
    {
      "inputs": [],
      "name": "nonce",
      "outputs": [
        {
          "internalType": "uint256",
          "name": "",
          "type": "uint256"
        }
      ],
      "stateMutability": "view",
      "type": "function"
    },
    {
      "inputs": [],
      "name": "treasury",
      "outputs": [
        {
          "internalType": "address",
          "name": "",
          "type": "address"
        }
      ],
      "stateMutability": "view",
      "type": "function"
    }
  ],
  "bytecode": "0x608060405234801561001057600080fd5b5060405161070e38038061070e833981810160405281019061003291906100dc565b80600160006101000a81548173ffffffffffffffffffffffffffffffffffffffff021916908373ffffffffffffffffffffffffffffffffffffffff16021790555050610109565b600080fd5b600073ffffffffffffffffffffffffffffffffffffffff82169050919050565b60006100a98261007e565b9050919050565b6100b98161009e565b81146100c457600080fd5b50565b6000815190506100d6816100b0565b92915050565b6000602082840312156100f2576100f1610079565b5b6000610100848285016100c7565b91505092915050565b6105f6806101186000396000f3fe6080604052600436106100345760003560e01c806361d027b314610039578063a26e118614610064578063affed0e014610080575b600080fd5b34801561004557600080fd5b5061004e6100ab565b60405161005b919061022e565b60405180910390f35b61007e600480360381019061007991906103a3565b6100d1565b005b34801561008c57600080fd5b506100956101e7565b6040516100a29190610405565b60405180910390f35b600160009054906101000a900473ffffffffffffffffffffffffffffffffffffffff1681565b60003411610114576040517f08c379a000000000000000000000000000000000000000000000000000000000815260040161010b9061047d565b60405180910390fd5b3373ffffffffffffffffffffffffffffffffffffffff167f6314311867196e2cc4664d73a351321ff78ae80b0220bcfbce2b464fd6fb86cb3483600080815480929190610160906104cc565b9190505560405161017393929190610582565b60405180910390a2600160009054906101000a900473ffffffffffffffffffffffffffffffffffffffff1673ffffffffffffffffffffffffffffffffffffffff166108fc349081150290604051600060405180830381858888f193505050501580156101e3573d6000803e3d6000fd5b5050565b60005481565b600073ffffffffffffffffffffffffffffffffffffffff82169050919050565b6000610218826101ed565b9050919050565b6102288161020d565b82525050565b6000602082019050610243600083018461021f565b92915050565b6000604051905090565b600080fd5b600080fd5b600080fd5b600080fd5b6000601f19601f8301169050919050565b7f4e487b7100000000000000000000000000000000000000000000000000000000600052604160045260246000fd5b6102b082610267565b810181811067ffffffffffffffff821117156102cf576102ce610278565b5b80604052505050565b60006102e2610249565b90506102ee82826102a7565b919050565b600067ffffffffffffffff82111561030e5761030d610278565b5b61031782610267565b9050602081019050919050565b82818337600083830152505050565b6000610346610341846102f3565b6102d8565b90508281526020810184848401111561036257610361610262565b5b61036d848285610324565b509392505050565b600082601f83011261038a5761038961025d565b5b813561039a848260208601610333565b91505092915050565b6000602082840312156103b9576103b8610253565b5b600082013567ffffffffffffffff8111156103d7576103d6610258565b5b6103e384828501610375565b91505092915050565b6000819050919050565b6103ff816103ec565b82525050565b600060208201905061041a60008301846103f6565b92915050565b600082825260208201905092915050565b7f416d6f756e74206d7573742062652067726561746572207468616e207a65726f600082015250565b6000610467602083610420565b915061047282610431565b602082019050919050565b600060208201905081810360008301526104968161045a565b9050919050565b7f4e487b7100000000000000000000000000000000000000000000000000000000600052601160045260246000fd5b60006104d7826103ec565b91507fffffffffffffffffffffffffffffffffffffffffffffffffffffffffffffffff82036105095761050861049d565b5b600182019050919050565b600081519050919050565b60005b8381101561053d578082015181840152602081019050610522565b60008484015250505050565b600061055482610514565b61055e8185610420565b935061056e81856020860161051f565b61057781610267565b840191505092915050565b600060608201905061059760008301866103f6565b81810360208301526105a98185610549565b90506105b860408301846103f6565b94935050505056fea2646970667358221220124d68340b330df2e01b7d4bc483615be629caa6493b37cdf3231a5bdde52b4c64736f6c634300081b0033",
  "linkReferences": {},
  "deployedLinkReferences": {}
}