{
  "_format": "hh-sol-artifact-1",
  "contractName": "BridgeX",
  "sourceName": "contracts/BridgeX.sol",
  "abi": [
    {
      "anonymous": false,
      "inputs": [
        {
          "indexed": true,
          "internalType": "address",
          "name": "recipient",
          "type": "address"
        },
        {
          "indexed": false,
          "internalType": "uint256",
          "name": "amount",
          "type": "uint256"
        },
        {
          "indexed": false,
          "internalType": "uint256",
          "name": "nonce",
          "type": "uint256"
        }
      ],
      "name": "Transfer",
      "type": "event"
    },
    {
      "inputs": [
        {
          "internalType": "address",
          "name": "recipient",
          "type": "address"
        },
        {
          "internalType": "uint256",
          "name": "amount",
          "type": "uint256"
        },
        {
          "internalType": "uint256",
          "name": "nonce",
          "type": "uint256"
        }
      ],
      "name": "processTransfer",
      "outputs": [],
      "stateMutability": "nonpayable",
      "type": "function"
    }
  ],
  "bytecode": "0x6080604052348015600f57600080fd5b506102428061001f6000396000f3fe608060405234801561001057600080fd5b506004361061002b5760003560e01c806318757b5614610030575b600080fd5b61004a60048036038101906100459190610181565b61004c565b005b8273ffffffffffffffffffffffffffffffffffffffff166108fc839081150290604051600060405180830381858888f19350505050158015610092573d6000803e3d6000fd5b508273ffffffffffffffffffffffffffffffffffffffff167f7fa9aafeb8bb803d77de5d84bc2f2edbd842ca91b20cd5020aa21dfe26ab0be983836040516100db9291906101e3565b60405180910390a2505050565b600080fd5b600073ffffffffffffffffffffffffffffffffffffffff82169050919050565b6000610118826100ed565b9050919050565b6101288161010d565b811461013357600080fd5b50565b6000813590506101458161011f565b92915050565b6000819050919050565b61015e8161014b565b811461016957600080fd5b50565b60008135905061017b81610155565b92915050565b60008060006060848603121561019a576101996100e8565b5b60006101a886828701610136565b93505060206101b98682870161016c565b92505060406101ca8682870161016c565b9150509250925092565b6101dd8161014b565b82525050565b60006040820190506101f860008301856101d4565b61020560208301846101d4565b939250505056fea2646970667358221220dd64ad4d207d0744faf5ec25b1e53f25a07afe664c6a620fcc0b21d5a071bcfe64736f6c634300081b0033",
  "linkReferences": {},
  "deployedLinkReferences": {}
}