{
  "_format": "hh-sol-artifact-1",
  "contractName": "Governance",
  "sourceName": "contracts/Governance.sol",
  "abi": [
    {
      "inputs": [
        {
          "internalType": "address",
          "name": "_carbonToken",
          "type": "address"
        }
      ],
      "stateMutability": "nonpayable",
      "type": "constructor"
    },
    {
      "anonymous": false,
      "inputs": [
        {
          "indexed": false,
          "internalType": "uint256",
          "name": "proposalId",
          "type": "uint256"
        },
        {
          "indexed": false,
          "internalType": "string",
          "name": "description",
          "type": "string"
        }
      ],
      "name": "ProposalCreated",
      "type": "event"
    },
    {
      "anonymous": false,
      "inputs": [
        {
          "indexed": false,
          "internalType": "uint256",
          "name": "proposalId",
          "type": "uint256"
        },
        {
          "indexed": false,
          "internalType": "address",
          "name": "voter",
          "type": "address"
        }
      ],
      "name": "Voted",
      "type": "event"
    },
    {
      "inputs": [],
      "name": "carbonToken",
      "outputs": [
        {
          "internalType": "contract CarbonCreditToken",
          "name": "",
          "type": "address"
        }
      ],
      "stateMutability": "view",
      "type": "function"
    },
    {
      "inputs": [
        {
          "internalType": "string",
          "name": "description",
          "type": "string"
        }
      ],
      "name": "createProposal",
      "outputs": [],
      "stateMutability": "nonpayable",
      "type": "function"
    },
    {
      "inputs": [
        {
          "internalType": "uint256",
          "name": "proposalId",
          "type": "uint256"
        }
      ],
      "name": "getProposal",
      "outputs": [
        {
          "components": [
            {
              "internalType": "string",
              "name": "description",
              "type": "string"
            },
            {
              "internalType": "uint256",
              "name": "voteCount",
              "type": "uint256"
            },
            {
              "internalType": "address",
              "name": "proposer",
              "type": "address"
            }
          ],
          "internalType": "struct Governance.Proposal",
          "name": "",
          "type": "tuple"
        }
      ],
      "stateMutability": "view",
      "type": "function"
    },
    {
      "inputs": [],
      "name": "nextProposalId",
      "outputs": [
        {
          "internalType": "uint256",
          "name": "",
          "type": "uint256"
        }
      ],
      "stateMutability": "view",
      "type": "function"
    },
    {
      "inputs": [
        {
          "internalType": "uint256",
          "name": "",
          "type": "uint256"
        }
      ],
      "name": "proposals",
      "outputs": [
        {
          "internalType": "string",
          "name": "description",
          "type": "string"
        },
        {
          "internalType": "uint256",
          "name": "voteCount",
          "type": "uint256"
        },
        {
          "internalType": "address",
          "name": "proposer",
          "type": "address"
        }
      ],
      "stateMutability": "view",
      "type": "function"
    },
    {
      "inputs": [
        {
          "internalType": "uint256",
          "name": "proposalId",
          "type": "uint256"
        }
      ],
      "name": "vote",
      "outputs": [],
      "stateMutability": "nonpayable",
      "type": "function"
    },
    {
      "inputs": [
        {
          "internalType": "address",
          "name": "",
          "type": "address"
        },
        {
          "internalType": "uint256",
          "name": "",
          "type": "uint256"
        }
      ],
      "name": "votes",
      "outputs": [
        {
          "internalType": "bool",
          "name": "",
          "type": "bool"
        }
      ],
      "stateMutability": "view",
      "type": "function"
    }
  ],
  "bytecode": "0x608060405234801561001057600080fd5b50604051611374380380611374833981810160405281019061003291906100db565b806000806101000a81548173ffffffffffffffffffffffffffffffffffffffff021916908373ffffffffffffffffffffffffffffffffffffffff16021790555050610108565b600080fd5b600073ffffffffffffffffffffffffffffffffffffffff82169050919050565b60006100a88261007d565b9050919050565b6100b88161009d565b81146100c357600080fd5b50565b6000815190506100d5816100af565b92915050565b6000602082840312156100f1576100f0610078565b5b60006100ff848285016100c6565b91505092915050565b61125d806101176000396000f3fe608060405234801561001057600080fd5b506004361061007d5760003560e01c806349c2a1a61161005b57806349c2a1a6146100ee57806382a71ef21461010a5780639f2524ee14610128578063c7f758a8146101585761007d565b80630121b93f14610082578063013cf08b1461009e5780632ab09d14146100d0575b600080fd5b61009c60048036038101906100979190610840565b610188565b005b6100b860048036038101906100b39190610840565b61046e565b6040516100c79392919061094d565b60405180910390f35b6100d8610540565b6040516100e5919061098b565b60405180910390f35b61010860048036038101906101039190610adb565b610546565b005b61011261064d565b60405161011f9190610b83565b60405180910390f35b610142600480360381019061013d9190610bca565b610671565b60405161014f9190610c25565b60405180910390f35b610172600480360381019061016d9190610840565b6106a0565b60405161017f9190610cf8565b60405180910390f35b60008060009054906101000a900473ffffffffffffffffffffffffffffffffffffffff1673ffffffffffffffffffffffffffffffffffffffff166370a08231336040518263ffffffff1660e01b81526004016101e49190610d1a565b602060405180830381865afa158015610201573d6000803e3d6000fd5b505050506040513d601f19601f820116820180604052508101906102259190610d4a565b11610265576040517f08c379a000000000000000000000000000000000000000000000000000000000815260040161025c90610dc3565b60405180910390fd5b600360003373ffffffffffffffffffffffffffffffffffffffff1673ffffffffffffffffffffffffffffffffffffffff168152602001908152602001600020600082815260200190815260200160002060009054906101000a900460ff1615610303576040517f08c379a00000000000000000000000000000000000000000000000000000000081526004016102fa90610e2f565b60405180910390fd5b6001600360003373ffffffffffffffffffffffffffffffffffffffff1673ffffffffffffffffffffffffffffffffffffffff168152602001908152602001600020600083815260200190815260200160002060006101000a81548160ff02191690831515021790555060008054906101000a900473ffffffffffffffffffffffffffffffffffffffff1673ffffffffffffffffffffffffffffffffffffffff166370a08231336040518263ffffffff1660e01b81526004016103c59190610d1a565b602060405180830381865afa1580156103e2573d6000803e3d6000fd5b505050506040513d601f19601f820116820180604052508101906104069190610d4a565b60016000838152602001908152602001600020600101600082825461042b9190610e7e565b925050819055507f030b0f8dcd86a031eddb071f91882edeac8173663ba775713b677b42b51be44b8133604051610463929190610eb2565b60405180910390a150565b600160205280600052604060002060009150905080600001805461049190610f0a565b80601f01602080910402602001604051908101604052809291908181526020018280546104bd90610f0a565b801561050a5780601f106104df5761010080835404028352916020019161050a565b820191906000526020600020905b8154815290600101906020018083116104ed57829003601f168201915b5050505050908060010154908060020160009054906101000a900473ffffffffffffffffffffffffffffffffffffffff16905083565b60025481565b6040518060600160405280828152602001600081526020013373ffffffffffffffffffffffffffffffffffffffff1681525060016000600254815260200190815260200160002060008201518160000190816105a291906110dd565b506020820151816001015560408201518160020160006101000a81548173ffffffffffffffffffffffffffffffffffffffff021916908373ffffffffffffffffffffffffffffffffffffffff1602179055509050507f9c770c289ab5bf7e57cb1d23c8ceae993aea46eb64847072fd3d78ca60d3e4326002548260405161062a9291906111af565b60405180910390a160026000815480929190610645906111df565b919050555050565b60008054906101000a900473ffffffffffffffffffffffffffffffffffffffff1681565b60036020528160005260406000206020528060005260406000206000915091509054906101000a900460ff1681565b6106a86107bf565b600160008381526020019081526020016000206040518060600160405290816000820180546106d690610f0a565b80601f016020809104026020016040519081016040528092919081815260200182805461070290610f0a565b801561074f5780601f106107245761010080835404028352916020019161074f565b820191906000526020600020905b81548152906001019060200180831161073257829003601f168201915b50505050508152602001600182015481526020016002820160009054906101000a900473ffffffffffffffffffffffffffffffffffffffff1673ffffffffffffffffffffffffffffffffffffffff1673ffffffffffffffffffffffffffffffffffffffff16815250509050919050565b60405180606001604052806060815260200160008152602001600073ffffffffffffffffffffffffffffffffffffffff1681525090565b6000604051905090565b600080fd5b600080fd5b6000819050919050565b61081d8161080a565b811461082857600080fd5b50565b60008135905061083a81610814565b92915050565b60006020828403121561085657610855610800565b5b60006108648482850161082b565b91505092915050565b600081519050919050565b600082825260208201905092915050565b60005b838110156108a757808201518184015260208101905061088c565b60008484015250505050565b6000601f19601f8301169050919050565b60006108cf8261086d565b6108d98185610878565b93506108e9818560208601610889565b6108f2816108b3565b840191505092915050565b6109068161080a565b82525050565b600073ffffffffffffffffffffffffffffffffffffffff82169050919050565b60006109378261090c565b9050919050565b6109478161092c565b82525050565b6000606082019050818103600083015261096781866108c4565b905061097660208301856108fd565b610983604083018461093e565b949350505050565b60006020820190506109a060008301846108fd565b92915050565b600080fd5b600080fd5b7f4e487b7100000000000000000000000000000000000000000000000000000000600052604160045260246000fd5b6109e8826108b3565b810181811067ffffffffffffffff82111715610a0757610a066109b0565b5b80604052505050565b6000610a1a6107f6565b9050610a2682826109df565b919050565b600067ffffffffffffffff821115610a4657610a456109b0565b5b610a4f826108b3565b9050602081019050919050565b82818337600083830152505050565b6000610a7e610a7984610a2b565b610a10565b905082815260208101848484011115610a9a57610a996109ab565b5b610aa5848285610a5c565b509392505050565b600082601f830112610ac257610ac16109a6565b5b8135610ad2848260208601610a6b565b91505092915050565b600060208284031215610af157610af0610800565b5b600082013567ffffffffffffffff811115610b0f57610b0e610805565b5b610b1b84828501610aad565b91505092915050565b6000819050919050565b6000610b49610b44610b3f8461090c565b610b24565b61090c565b9050919050565b6000610b5b82610b2e565b9050919050565b6000610b6d82610b50565b9050919050565b610b7d81610b62565b82525050565b6000602082019050610b986000830184610b74565b92915050565b610ba78161092c565b8114610bb257600080fd5b50565b600081359050610bc481610b9e565b92915050565b60008060408385031215610be157610be0610800565b5b6000610bef85828601610bb5565b9250506020610c008582860161082b565b9150509250929050565b60008115159050919050565b610c1f81610c0a565b82525050565b6000602082019050610c3a6000830184610c16565b92915050565b600082825260208201905092915050565b6000610c5c8261086d565b610c668185610c40565b9350610c76818560208601610889565b610c7f816108b3565b840191505092915050565b610c938161080a565b82525050565b610ca28161092c565b82525050565b60006060830160008301518482036000860152610cc58282610c51565b9150506020830151610cda6020860182610c8a565b506040830151610ced6040860182610c99565b508091505092915050565b60006020820190508181036000830152610d128184610ca8565b905092915050565b6000602082019050610d2f600083018461093e565b92915050565b600081519050610d4481610814565b92915050565b600060208284031215610d6057610d5f610800565b5b6000610d6e84828501610d35565b91505092915050565b7f596f75206d757374206f776e20746f6b656e7320746f20766f74650000000000600082015250565b6000610dad601b83610878565b9150610db882610d77565b602082019050919050565b60006020820190508181036000830152610ddc81610da0565b9050919050565b7f596f75206861766520616c726561647920766f74656400000000000000000000600082015250565b6000610e19601683610878565b9150610e2482610de3565b602082019050919050565b60006020820190508181036000830152610e4881610e0c565b9050919050565b7f4e487b7100000000000000000000000000000000000000000000000000000000600052601160045260246000fd5b6000610e898261080a565b9150610e948361080a565b9250828201905080821115610eac57610eab610e4f565b5b92915050565b6000604082019050610ec760008301856108fd565b610ed4602083018461093e565b9392505050565b7f4e487b7100000000000000000000000000000000000000000000000000000000600052602260045260246000fd5b60006002820490506001821680610f2257607f821691505b602082108103610f3557610f34610edb565b5b50919050565b60008190508160005260206000209050919050565b60006020601f8301049050919050565b600082821b905092915050565b600060088302610f9d7fffffffffffffffffffffffffffffffffffffffffffffffffffffffffffffffff82610f60565b610fa78683610f60565b95508019841693508086168417925050509392505050565b6000610fda610fd5610fd08461080a565b610b24565b61080a565b9050919050565b6000819050919050565b610ff483610fbf565b61100861100082610fe1565b848454610f6d565b825550505050565b600090565b61101d611010565b611028818484610feb565b505050565b5b8181101561104c57611041600082611015565b60018101905061102e565b5050565b601f8211156110915761106281610f3b565b61106b84610f50565b8101602085101561107a578190505b61108e61108685610f50565b83018261102d565b50505b505050565b600082821c905092915050565b60006110b460001984600802611096565b1980831691505092915050565b60006110cd83836110a3565b9150826002028217905092915050565b6110e68261086d565b67ffffffffffffffff8111156110ff576110fe6109b0565b5b6111098254610f0a565b611114828285611050565b600060209050601f8311600181146111475760008415611135578287015190505b61113f85826110c1565b8655506111a7565b601f19841661115586610f3b565b60005b8281101561117d57848901518255600182019150602085019450602081019050611158565b8683101561119a5784890151611196601f8916826110a3565b8355505b6001600288020188555050505b505050505050565b60006040820190506111c460008301856108fd565b81810360208301526111d681846108c4565b90509392505050565b60006111ea8261080a565b91507fffffffffffffffffffffffffffffffffffffffffffffffffffffffffffffffff820361121c5761121b610e4f565b5b60018201905091905056fea2646970667358221220e5a79bf76eb3ae3c85ce0a40029f5a96a3e5927d9a206d820ee14dc3b8b98a9964736f6c634300081b0033",
  "linkReferences": {},
  "deployedLinkReferences": {}
}