{
  "_format": "hh-sol-artifact-1",
  "contractName": "CarbonMarketplace",
  "sourceName": "contracts/CarbonMarketplace.sol",
  "abi": [
    {
      "inputs": [
        {
          "internalType": "address",
          "name": "_carbonToken",
          "type": "address"
        }
      ],
      "stateMutability": "nonpayable",
      "type": "constructor"
    },
    {
      "anonymous": false,
      "inputs": [
        {
          "indexed": false,
          "internalType": "uint256",
          "name": "orderId",
          "type": "uint256"
        }
      ],
      "name": "OrderCancelled",
      "type": "event"
    },
    {
      "anonymous": false,
      "inputs": [
        {
          "indexed": false,
          "internalType": "uint256",
          "name": "orderId",
          "type": "uint256"
        },
        {
          "indexed": false,
          "internalType": "address",
          "name": "trader",
          "type": "address"
        },
        {
          "indexed": false,
          "internalType": "uint256",
          "name": "amount",
          "type": "uint256"
        },
        {
          "indexed": false,
          "internalType": "uint256",
          "name": "price",
          "type": "uint256"
        },
        {
          "indexed": false,
          "internalType": "bool",
          "name": "isBuyOrder",
          "type": "bool"
        }
      ],
      "name": "OrderCreated",
      "type": "event"
    },
    {
      "anonymous": false,
      "inputs": [
        {
          "indexed": false,
          "internalType": "uint256",
          "name": "orderId",
          "type": "uint256"
        },
        {
          "indexed": false,
          "internalType": "address",
          "name": "buyer",
          "type": "address"
        },
        {
          "indexed": false,
          "internalType": "address",
          "name": "seller",
          "type": "address"
        },
        {
          "indexed": false,
          "internalType": "uint256",
          "name": "amount",
          "type": "uint256"
        },
        {
          "indexed": false,
          "internalType": "uint256",
          "name": "price",
          "type": "uint256"
        }
      ],
      "name": "OrderFulfilled",
      "type": "event"
    },
    {
      "inputs": [],
      "name": "admin",
      "outputs": [
        {
          "internalType": "address",
          "name": "",
          "type": "address"
        }
      ],
      "stateMutability": "view",
      "type": "function"
    },
    {
      "inputs": [
        {
          "internalType": "uint256",
          "name": "orderId",
          "type": "uint256"
        }
      ],
      "name": "cancelOrder",
      "outputs": [],
      "stateMutability": "nonpayable",
      "type": "function"
    },
    {
      "inputs": [],
      "name": "carbonToken",
      "outputs": [
        {
          "internalType": "contract CarbonCreditToken",
          "name": "",
          "type": "address"
        }
      ],
      "stateMutability": "view",
      "type": "function"
    },
    {
      "inputs": [
        {
          "internalType": "uint256",
          "name": "amount",
          "type": "uint256"
        },
        {
          "internalType": "uint256",
          "name": "price",
          "type": "uint256"
        },
        {
          "internalType": "bool",
          "name": "isBuyOrder",
          "type": "bool"
        }
      ],
      "name": "createLimitOrder",
      "outputs": [],
      "stateMutability": "payable",
      "type": "function"
    },
    {
      "inputs": [
        {
          "internalType": "uint256",
          "name": "orderId",
          "type": "uint256"
        }
      ],
      "name": "getOrderDetails",
      "outputs": [
        {
          "internalType": "uint256",
          "name": "",
          "type": "uint256"
        },
        {
          "internalType": "uint256",
          "name": "",
          "type": "uint256"
        },
        {
          "internalType": "address",
          "name": "",
          "type": "address"
        },
        {
          "internalType": "bool",
          "name": "",
          "type": "bool"
        }
      ],
      "stateMutability": "view",
      "type": "function"
    },
    {
      "inputs": [
        {
          "internalType": "address",
          "name": "user",
          "type": "address"
        }
      ],
      "name": "getUserReputation",
      "outputs": [
        {
          "internalType": "uint256",
          "name": "",
          "type": "uint256"
        },
        {
          "internalType": "uint256",
          "name": "",
          "type": "uint256"
        }
      ],
      "stateMutability": "view",
      "type": "function"
    },
    {
      "inputs": [],
      "name": "nextOrderId",
      "outputs": [
        {
          "internalType": "uint256",
          "name": "",
          "type": "uint256"
        }
      ],
      "stateMutability": "view",
      "type": "function"
    },
    {
      "inputs": [
        {
          "internalType": "uint256",
          "name": "",
          "type": "uint256"
        }
      ],
      "name": "orders",
      "outputs": [
        {
          "internalType": "uint256",
          "name": "amount",
          "type": "uint256"
        },
        {
          "internalType": "uint256",
          "name": "price",
          "type": "uint256"
        },
        {
          "internalType": "address",
          "name": "trader",
          "type": "address"
        },
        {
          "internalType": "bool",
          "name": "isBuyOrder",
          "type": "bool"
        }
      ],
      "stateMutability": "view",
      "type": "function"
    },
    {
      "inputs": [
        {
          "internalType": "address",
          "name": "",
          "type": "address"
        }
      ],
      "name": "userReputations",
      "outputs": [
        {
          "internalType": "uint256",
          "name": "totalTransactions",
          "type": "uint256"
        },
        {
          "internalType": "uint256",
          "name": "successfulTransactions",
          "type": "uint256"
        }
      ],
      "stateMutability": "view",
      "type": "function"
    }
  ],
  "bytecode": "0x608060405234801561001057600080fd5b506040516117613803806117618339818101604052810190610032919061011c565b806000806101000a81548173ffffffffffffffffffffffffffffffffffffffff021916908373ffffffffffffffffffffffffffffffffffffffff16021790555033600160006101000a81548173ffffffffffffffffffffffffffffffffffffffff021916908373ffffffffffffffffffffffffffffffffffffffff16021790555050610149565b600080fd5b600073ffffffffffffffffffffffffffffffffffffffff82169050919050565b60006100e9826100be565b9050919050565b6100f9816100de565b811461010457600080fd5b50565b600081519050610116816100f0565b92915050565b600060208284031215610132576101316100b9565b5b600061014084828501610107565b91505092915050565b611609806101586000396000f3fe6080604052600436106100865760003560e01c8063a85c38ef11610059578063a85c38ef14610126578063baccbfdb14610166578063ec7dd7bb146101a4578063f851a440146101e4578063f8b116911461020f57610086565b80632a58b3301461008b57806331692d18146100b6578063514fcac7146100d257806382a71ef2146100fb575b600080fd5b34801561009757600080fd5b506100a061024d565b6040516100ad9190610e59565b60405180910390f35b6100d060048036038101906100cb9190610edd565b610253565b005b3480156100de57600080fd5b506100f960048036038101906100f49190610f30565b6105a8565b005b34801561010757600080fd5b506101106107a6565b60405161011d9190610fdc565b60405180910390f35b34801561013257600080fd5b5061014d60048036038101906101489190610f30565b6107ca565b60405161015d9493929190611027565b60405180910390f35b34801561017257600080fd5b5061018d60048036038101906101889190611098565b610827565b60405161019b9291906110c5565b60405180910390f35b3480156101b057600080fd5b506101cb60048036038101906101c69190610f30565b610881565b6040516101db9493929190611027565b60405180910390f35b3480156101f057600080fd5b506101f96108ef565b60405161020691906110ee565b60405180910390f35b34801561021b57600080fd5b5061023660048036038101906102319190611098565b610915565b6040516102449291906110c5565b60405180910390f35b60035481565b80156102ac5781836102659190611138565b3410156102a7576040517f08c379a000000000000000000000000000000000000000000000000000000000815260040161029e906111d7565b60405180910390fd5b610467565b8260008054906101000a900473ffffffffffffffffffffffffffffffffffffffff1673ffffffffffffffffffffffffffffffffffffffff166370a08231336040518263ffffffff1660e01b815260040161030691906110ee565b602060405180830381865afa158015610323573d6000803e3d6000fd5b505050506040513d601f19601f82011682018060405250810190610347919061120c565b1015610388576040517f08c379a000000000000000000000000000000000000000000000000000000000815260040161037f90611285565b60405180910390fd5b8260008054906101000a900473ffffffffffffffffffffffffffffffffffffffff1673ffffffffffffffffffffffffffffffffffffffff1663dd62ed3e33306040518363ffffffff1660e01b81526004016103e49291906112a5565b602060405180830381865afa158015610401573d6000803e3d6000fd5b505050506040513d601f19601f82011682018060405250810190610425919061120c565b1015610466576040517f08c379a000000000000000000000000000000000000000000000000000000000815260040161045d9061131a565b60405180910390fd5b5b60405180608001604052808481526020018381526020013373ffffffffffffffffffffffffffffffffffffffff168152602001821515815250600260006003548152602001908152602001600020600082015181600001556020820151816001015560408201518160020160006101000a81548173ffffffffffffffffffffffffffffffffffffffff021916908373ffffffffffffffffffffffffffffffffffffffff16021790555060608201518160020160146101000a81548160ff0219169083151502179055509050507f06e7b9568fe8990c21116c42aadd1ea3184e7a30588ea8e4264a056d0f7f7d976003543385858560405161056c95949392919061133a565b60405180910390a1600360008154809291906105879061138d565b91905055506105a3600160035461059e91906113d5565b610939565b505050565b60006002600083815260200190815260200160002090503373ffffffffffffffffffffffffffffffffffffffff168160020160009054906101000a900473ffffffffffffffffffffffffffffffffffffffff1673ffffffffffffffffffffffffffffffffffffffff1614610651576040517f08c379a000000000000000000000000000000000000000000000000000000000815260040161064890611455565b60405180910390fd5b6000816000015411610698576040517f08c379a000000000000000000000000000000000000000000000000000000000815260040161068f906114e7565b60405180910390fd5b8060020160149054906101000a900460ff161561070a573373ffffffffffffffffffffffffffffffffffffffff166108fc826001015483600001546106dd9190611138565b9081150290604051600060405180830381858888f19350505050158015610708573d6000803e3d6000fd5b505b6002600083815260200190815260200160002060008082016000905560018201600090556002820160006101000a81549073ffffffffffffffffffffffffffffffffffffffff02191690556002820160146101000a81549060ff021916905550507f61b9399f2f0f32ca39ce8d7be32caed5ec22fe07a6daba3a467ed479ec6065828260405161079a9190610e59565b60405180910390a15050565b60008054906101000a900473ffffffffffffffffffffffffffffffffffffffff1681565b60026020528060005260406000206000915090508060000154908060010154908060020160009054906101000a900473ffffffffffffffffffffffffffffffffffffffff16908060020160149054906101000a900460ff16905084565b6000806000600460008573ffffffffffffffffffffffffffffffffffffffff1673ffffffffffffffffffffffffffffffffffffffff1681526020019081526020016000209050806000015481600101549250925050915091565b6000806000806000600260008781526020019081526020016000209050806000015481600101548260020160009054906101000a900473ffffffffffffffffffffffffffffffffffffffff168360020160149054906101000a900460ff169450945094509450509193509193565b600160009054906101000a900473ffffffffffffffffffffffffffffffffffffffff1681565b60046020528060005260406000206000915090508060000154908060010154905082565b600060026000838152602001908152602001600020905060005b600354811015610c365782810315610c29576000600260008381526020019081526020016000209050600081600001540361098e5750610c29565b8060020160149054906101000a900460ff1615158360020160149054906101000a900460ff161515036109c15750610c29565b8260020160149054906101000a900460ff1680156109e757508060010154836001015410155b80610a1557508260020160149054906101000a900460ff16158015610a1457508060010154836001015411155b5b15610c275760008160000154846000015410610a35578160000154610a3b565b83600001545b90506000826001015490508460020160149054906101000a900460ff1615610ab657610ab18560020160009054906101000a900473ffffffffffffffffffffffffffffffffffffffff168460020160009054906101000a900473ffffffffffffffffffffffffffffffffffffffff168484610c3b565b610b0b565b610b0a8360020160009054906101000a900473ffffffffffffffffffffffffffffffffffffffff168660020160009054906101000a900473ffffffffffffffffffffffffffffffffffffffff168484610c3b565b5b81856000016000828254610b1f91906113d5565b9250508190555081836000016000828254610b3a91906113d5565b925050819055506000836000015403610baf576002600085815260200190815260200160002060008082016000905560018201600090556002820160006101000a81549073ffffffffffffffffffffffffffffffffffffffff02191690556002820160146101000a81549060ff021916905550505b6000856000015403610c24576002600087815260200190815260200160002060008082016000905560018201600090556002820160006101000a81549073ffffffffffffffffffffffffffffffffffffffff02191690556002820160146101000a81549060ff02191690555050505050610c36565b50505b505b8080600101915050610953565b505050565b60008183610c499190611138565b905060008054906101000a900473ffffffffffffffffffffffffffffffffffffffff1673ffffffffffffffffffffffffffffffffffffffff166323b872dd8587866040518463ffffffff1660e01b8152600401610ca893929190611507565b6020604051808303816000875af1158015610cc7573d6000803e3d6000fd5b505050506040513d601f19601f82011682018060405250810190610ceb9190611553565b508373ffffffffffffffffffffffffffffffffffffffff166108fc829081150290604051600060405180830381858888f19350505050158015610d32573d6000803e3d6000fd5b50610d3c85610d8d565b610d4584610d8d565b7fe847ce2e2eb43b46eebf1b3aa5cd5a85a80e2537dc01a5fe9e48038508ec0d4460035486868686604051610d7e959493929190611580565b60405180910390a15050505050565b600460008273ffffffffffffffffffffffffffffffffffffffff1673ffffffffffffffffffffffffffffffffffffffff1681526020019081526020016000206000016000815480929190610de09061138d565b9190505550600460008273ffffffffffffffffffffffffffffffffffffffff1673ffffffffffffffffffffffffffffffffffffffff1681526020019081526020016000206001016000815480929190610e389061138d565b919050555050565b6000819050919050565b610e5381610e40565b82525050565b6000602082019050610e6e6000830184610e4a565b92915050565b600080fd5b610e8281610e40565b8114610e8d57600080fd5b50565b600081359050610e9f81610e79565b92915050565b60008115159050919050565b610eba81610ea5565b8114610ec557600080fd5b50565b600081359050610ed781610eb1565b92915050565b600080600060608486031215610ef657610ef5610e74565b5b6000610f0486828701610e90565b9350506020610f1586828701610e90565b9250506040610f2686828701610ec8565b9150509250925092565b600060208284031215610f4657610f45610e74565b5b6000610f5484828501610e90565b91505092915050565b600073ffffffffffffffffffffffffffffffffffffffff82169050919050565b6000819050919050565b6000610fa2610f9d610f9884610f5d565b610f7d565b610f5d565b9050919050565b6000610fb482610f87565b9050919050565b6000610fc682610fa9565b9050919050565b610fd681610fbb565b82525050565b6000602082019050610ff16000830184610fcd565b92915050565b600061100282610f5d565b9050919050565b61101281610ff7565b82525050565b61102181610ea5565b82525050565b600060808201905061103c6000830187610e4a565b6110496020830186610e4a565b6110566040830185611009565b6110636060830184611018565b95945050505050565b61107581610ff7565b811461108057600080fd5b50565b6000813590506110928161106c565b92915050565b6000602082840312156110ae576110ad610e74565b5b60006110bc84828501611083565b91505092915050565b60006040820190506110da6000830185610e4a565b6110e76020830184610e4a565b9392505050565b60006020820190506111036000830184611009565b92915050565b7f4e487b7100000000000000000000000000000000000000000000000000000000600052601160045260246000fd5b600061114382610e40565b915061114e83610e40565b925082820261115c81610e40565b9150828204841483151761117357611172611109565b5b5092915050565b600082825260208201905092915050565b7f496e73756666696369656e742045544820666f7220627579206f726465720000600082015250565b60006111c1601e8361117a565b91506111cc8261118b565b602082019050919050565b600060208201905081810360008301526111f0816111b4565b9050919050565b60008151905061120681610e79565b92915050565b60006020828403121561122257611221610e74565b5b6000611230848285016111f7565b91505092915050565b7f496e73756666696369656e7420746f6b656e2062616c616e6365000000000000600082015250565b600061126f601a8361117a565b915061127a82611239565b602082019050919050565b6000602082019050818103600083015261129e81611262565b9050919050565b60006040820190506112ba6000830185611009565b6112c76020830184611009565b9392505050565b7f496e73756666696369656e7420746f6b656e20616c6c6f77616e636500000000600082015250565b6000611304601c8361117a565b915061130f826112ce565b602082019050919050565b60006020820190508181036000830152611333816112f7565b9050919050565b600060a08201905061134f6000830188610e4a565b61135c6020830187611009565b6113696040830186610e4a565b6113766060830185610e4a565b6113836080830184611018565b9695505050505050565b600061139882610e40565b91507fffffffffffffffffffffffffffffffffffffffffffffffffffffffffffffffff82036113ca576113c9611109565b5b600182019050919050565b60006113e082610e40565b91506113eb83610e40565b925082820390508181111561140357611402611109565b5b92915050565b7f4e6f7420746865206f726465722063726561746f720000000000000000000000600082015250565b600061143f60158361117a565b915061144a82611409565b602082019050919050565b6000602082019050818103600083015261146e81611432565b9050919050565b7f4f7264657220616c72656164792066756c66696c6c6564206f722063616e636560008201527f6c6c656400000000000000000000000000000000000000000000000000000000602082015250565b60006114d160248361117a565b91506114dc82611475565b604082019050919050565b60006020820190508181036000830152611500816114c4565b9050919050565b600060608201905061151c6000830186611009565b6115296020830185611009565b6115366040830184610e4a565b949350505050565b60008151905061154d81610eb1565b92915050565b60006020828403121561156957611568610e74565b5b60006115778482850161153e565b91505092915050565b600060a0820190506115956000830188610e4a565b6115a26020830187611009565b6115af6040830186611009565b6115bc6060830185610e4a565b6115c96080830184610e4a565b969550505050505056fea2646970667358221220e4f5c7234da4eb6f2c6aaee77006ca46b028e49aa8d89f4919f0c401e109e60264736f6c634300081b0033",
  "linkReferences": {},
  "deployedLinkReferences": {}
}